{
  "contractName": "StarNotary",
  "abi": [
    {
      "inputs": [],
      "stateMutability": "nonpayable",
      "type": "constructor"
    },
    {
      "anonymous": false,
      "inputs": [
        {
          "indexed": true,
          "internalType": "address",
          "name": "owner",
          "type": "address"
        },
        {
          "indexed": true,
          "internalType": "address",
          "name": "approved",
          "type": "address"
        },
        {
          "indexed": true,
          "internalType": "uint256",
          "name": "tokenId",
          "type": "uint256"
        }
      ],
      "name": "Approval",
      "type": "event"
    },
    {
      "anonymous": false,
      "inputs": [
        {
          "indexed": true,
          "internalType": "address",
          "name": "owner",
          "type": "address"
        },
        {
          "indexed": true,
          "internalType": "address",
          "name": "operator",
          "type": "address"
        },
        {
          "indexed": false,
          "internalType": "bool",
          "name": "approved",
          "type": "bool"
        }
      ],
      "name": "ApprovalForAll",
      "type": "event"
    },
    {
      "anonymous": false,
      "inputs": [
        {
          "indexed": true,
          "internalType": "address",
          "name": "from",
          "type": "address"
        },
        {
          "indexed": true,
          "internalType": "address",
          "name": "to",
          "type": "address"
        },
        {
          "indexed": true,
          "internalType": "uint256",
          "name": "tokenId",
          "type": "uint256"
        }
      ],
      "name": "Transfer",
      "type": "event"
    },
    {
      "inputs": [
        {
          "internalType": "address",
          "name": "to",
          "type": "address"
        },
        {
          "internalType": "uint256",
          "name": "tokenId",
          "type": "uint256"
        }
      ],
      "name": "approve",
      "outputs": [],
      "stateMutability": "nonpayable",
      "type": "function"
    },
    {
      "inputs": [
        {
          "internalType": "address",
          "name": "owner",
          "type": "address"
        }
      ],
      "name": "balanceOf",
      "outputs": [
        {
          "internalType": "uint256",
          "name": "",
          "type": "uint256"
        }
      ],
      "stateMutability": "view",
      "type": "function",
      "constant": true
    },
    {
      "inputs": [
        {
          "internalType": "uint256",
          "name": "tokenId",
          "type": "uint256"
        }
      ],
      "name": "getApproved",
      "outputs": [
        {
          "internalType": "address",
          "name": "",
          "type": "address"
        }
      ],
      "stateMutability": "view",
      "type": "function",
      "constant": true
    },
    {
      "inputs": [
        {
          "internalType": "address",
          "name": "owner",
          "type": "address"
        },
        {
          "internalType": "address",
          "name": "operator",
          "type": "address"
        }
      ],
      "name": "isApprovedForAll",
      "outputs": [
        {
          "internalType": "bool",
          "name": "",
          "type": "bool"
        }
      ],
      "stateMutability": "view",
      "type": "function",
      "constant": true
    },
    {
      "inputs": [],
      "name": "name",
      "outputs": [
        {
          "internalType": "string",
          "name": "",
          "type": "string"
        }
      ],
      "stateMutability": "view",
      "type": "function",
      "constant": true
    },
    {
      "inputs": [
        {
          "internalType": "uint256",
          "name": "tokenId",
          "type": "uint256"
        }
      ],
      "name": "ownerOf",
      "outputs": [
        {
          "internalType": "address",
          "name": "",
          "type": "address"
        }
      ],
      "stateMutability": "view",
      "type": "function",
      "constant": true
    },
    {
      "inputs": [
        {
          "internalType": "address",
          "name": "from",
          "type": "address"
        },
        {
          "internalType": "address",
          "name": "to",
          "type": "address"
        },
        {
          "internalType": "uint256",
          "name": "tokenId",
          "type": "uint256"
        }
      ],
      "name": "safeTransferFrom",
      "outputs": [],
      "stateMutability": "nonpayable",
      "type": "function"
    },
    {
      "inputs": [
        {
          "internalType": "address",
          "name": "from",
          "type": "address"
        },
        {
          "internalType": "address",
          "name": "to",
          "type": "address"
        },
        {
          "internalType": "uint256",
          "name": "tokenId",
          "type": "uint256"
        },
        {
          "internalType": "bytes",
          "name": "_data",
          "type": "bytes"
        }
      ],
      "name": "safeTransferFrom",
      "outputs": [],
      "stateMutability": "nonpayable",
      "type": "function"
    },
    {
      "inputs": [
        {
          "internalType": "address",
          "name": "operator",
          "type": "address"
        },
        {
          "internalType": "bool",
          "name": "approved",
          "type": "bool"
        }
      ],
      "name": "setApprovalForAll",
      "outputs": [],
      "stateMutability": "nonpayable",
      "type": "function"
    },
    {
      "inputs": [
        {
          "internalType": "uint256",
          "name": "",
          "type": "uint256"
        }
      ],
      "name": "starsForSale",
      "outputs": [
        {
          "internalType": "uint256",
          "name": "",
          "type": "uint256"
        }
      ],
      "stateMutability": "view",
      "type": "function",
      "constant": true
    },
    {
      "inputs": [
        {
          "internalType": "bytes4",
          "name": "interfaceId",
          "type": "bytes4"
        }
      ],
      "name": "supportsInterface",
      "outputs": [
        {
          "internalType": "bool",
          "name": "",
          "type": "bool"
        }
      ],
      "stateMutability": "view",
      "type": "function",
      "constant": true
    },
    {
      "inputs": [],
      "name": "symbol",
      "outputs": [
        {
          "internalType": "string",
          "name": "",
          "type": "string"
        }
      ],
      "stateMutability": "view",
      "type": "function",
      "constant": true
    },
    {
      "inputs": [
        {
          "internalType": "uint256",
          "name": "",
          "type": "uint256"
        }
      ],
      "name": "tokenIdToStarInfo",
      "outputs": [
        {
          "internalType": "string",
          "name": "name",
          "type": "string"
        }
      ],
      "stateMutability": "view",
      "type": "function",
      "constant": true
    },
    {
      "inputs": [
        {
          "internalType": "uint256",
          "name": "tokenId",
          "type": "uint256"
        }
      ],
      "name": "tokenURI",
      "outputs": [
        {
          "internalType": "string",
          "name": "",
          "type": "string"
        }
      ],
      "stateMutability": "view",
      "type": "function",
      "constant": true
    },
    {
      "inputs": [
        {
          "internalType": "address",
          "name": "from",
          "type": "address"
        },
        {
          "internalType": "address",
          "name": "to",
          "type": "address"
        },
        {
          "internalType": "uint256",
          "name": "tokenId",
          "type": "uint256"
        }
      ],
      "name": "transferFrom",
      "outputs": [],
      "stateMutability": "nonpayable",
      "type": "function"
    },
    {
      "inputs": [
        {
          "internalType": "string",
          "name": "_name",
          "type": "string"
        },
        {
          "internalType": "uint256",
          "name": "_tokenId",
          "type": "uint256"
        }
      ],
      "name": "createStar",
      "outputs": [],
      "stateMutability": "nonpayable",
      "type": "function"
    },
    {
      "inputs": [
        {
          "internalType": "uint256",
          "name": "_tokenId",
          "type": "uint256"
        },
        {
          "internalType": "uint256",
          "name": "_price",
          "type": "uint256"
        }
      ],
      "name": "putStarUpForSale",
      "outputs": [],
      "stateMutability": "nonpayable",
      "type": "function"
    },
    {
      "inputs": [
        {
          "internalType": "uint256",
          "name": "_tokenId",
          "type": "uint256"
        }
      ],
      "name": "buyStar",
      "outputs": [],
      "stateMutability": "payable",
      "type": "function",
      "payable": true
    },
    {
      "inputs": [
        {
          "internalType": "uint256",
          "name": "_tokenId",
          "type": "uint256"
        }
      ],
      "name": "lookUptokenIdToStarInfo",
      "outputs": [
        {
          "internalType": "string",
          "name": "",
          "type": "string"
        }
      ],
      "stateMutability": "view",
      "type": "function",
      "constant": true
    },
    {
      "inputs": [
        {
          "internalType": "uint256",
          "name": "_tokenId1",
          "type": "uint256"
        },
        {
          "internalType": "uint256",
          "name": "_tokenId2",
          "type": "uint256"
        }
      ],
      "name": "exchangeStars",
      "outputs": [],
      "stateMutability": "nonpayable",
      "type": "function"
    },
    {
      "inputs": [
        {
          "internalType": "address",
          "name": "_to1",
          "type": "address"
        },
        {
          "internalType": "uint256",
          "name": "_tokenId",
          "type": "uint256"
        }
      ],
      "name": "transferStar",
      "outputs": [],
      "stateMutability": "nonpayable",
      "type": "function"
    }
  ],
  "bytecode": "0x60806040523480156200001157600080fd5b506040518060400160405280600a81526020017f537461724e6f74617279000000000000000000000000000000000000000000008152506040518060400160405280600281526020017f534e000000000000000000000000000000000000000000000000000000000000815250816000908051906020019062000096929190620000b8565b508060019080519060200190620000af929190620000b8565b505050620001cc565b828054620000c69062000197565b90600052602060002090601f016020900481019282620000ea576000855562000136565b82601f106200010557805160ff191683800117855562000136565b8280016001018555821562000136579182015b828111156200013557825182559160200191906001019062000118565b5b50905062000145919062000149565b5090565b5b80821115620001645760008160009055506001016200014a565b5090565b7f4e487b7100000000000000000000000000000000000000000000000000000000600052602260045260246000fd5b60006002820490506001821680620001b057607f821691505b602082108103620001c657620001c562000168565b5b50919050565b612f8880620001dc6000396000f3fe60806040526004361061012a5760003560e01c806342842e0e116100ab578063a22cb4651161006f578063a22cb46514610405578063b88d4fde1461042e578063c87b56dd14610457578063d7830ccb14610494578063e7152a5c146104d1578063e985e9c5146104fa5761012a565b806342842e0e1461030e5780636352211e1461033757806370a082311461037457806395d89b41146103b15780639697c0a1146103dc5761012a565b806315e0afa5116100f257806315e0afa51461023a5780631967fd981461026357806323b872dd146102a05780632f1c34ef146102c9578063316a4361146102e55761012a565b806301ffc9a71461012f5780630564b1301461016c57806306fdde03146101a9578063081812fc146101d4578063095ea7b314610211575b600080fd5b34801561013b57600080fd5b5061015660048036038101906101519190611c66565b610537565b6040516101639190611cae565b60405180910390f35b34801561017857600080fd5b50610193600480360381019061018e9190611cff565b610619565b6040516101a09190611d3b565b60405180910390f35b3480156101b557600080fd5b506101be610631565b6040516101cb9190611def565b60405180910390f35b3480156101e057600080fd5b506101fb60048036038101906101f69190611cff565b6106c3565b6040516102089190611e52565b60405180910390f35b34801561021d57600080fd5b5061023860048036038101906102339190611e99565b610748565b005b34801561024657600080fd5b50610261600480360381019061025c9190611ed9565b61085f565b005b34801561026f57600080fd5b5061028a60048036038101906102859190611cff565b610863565b6040516102979190611def565b60405180910390f35b3480156102ac57600080fd5b506102c760048036038101906102c29190611f19565b610909565b005b6102e360048036038101906102de9190611cff565b610969565b005b3480156102f157600080fd5b5061030c60048036038101906103079190611ed9565b610ae6565b005b34801561031a57600080fd5b5061033560048036038101906103309190611f19565b610b78565b005b34801561034357600080fd5b5061035e60048036038101906103599190611cff565b610b98565b60405161036b9190611e52565b60405180910390f35b34801561038057600080fd5b5061039b60048036038101906103969190611f6c565b610c49565b6040516103a89190611d3b565b60405180910390f35b3480156103bd57600080fd5b506103c6610d00565b6040516103d39190611def565b60405180910390f35b3480156103e857600080fd5b5061040360048036038101906103fe91906120ce565b610d92565b005b34801561041157600080fd5b5061042c60048036038101906104279190612156565b610de8565b005b34801561043a57600080fd5b5061045560048036038101906104509190612237565b610dfe565b005b34801561046357600080fd5b5061047e60048036038101906104799190611cff565b610e60565b60405161048b9190611def565b60405180910390f35b3480156104a057600080fd5b506104bb60048036038101906104b69190611cff565b610f07565b6040516104c89190611def565b60405180910390f35b3480156104dd57600080fd5b506104f860048036038101906104f39190611e99565b610f0e565b005b34801561050657600080fd5b50610521600480360381019061051c91906122ba565b610f12565b60405161052e9190611cae565b60405180910390f35b60007f80ac58cd000000000000000000000000000000000000000000000000000000007bffffffffffffffffffffffffffffffffffffffffffffffffffffffff1916827bffffffffffffffffffffffffffffffffffffffffffffffffffffffff1916148061060257507f5b5e139f000000000000000000000000000000000000000000000000000000007bffffffffffffffffffffffffffffffffffffffffffffffffffffffff1916827bffffffffffffffffffffffffffffffffffffffffffffffffffffffff1916145b80610612575061061182610fa6565b5b9050919050565b60076020528060005260406000206000915090505481565b60606000805461064090612329565b80601f016020809104026020016040519081016040528092919081815260200182805461066c90612329565b80156106b95780601f1061068e576101008083540402835291602001916106b9565b820191906000526020600020905b81548152906001019060200180831161069c57829003601f168201915b5050505050905090565b60006106ce82611010565b61070d576040517f08c379a0000000000000000000000000000000000000000000000000000000008152600401610704906123cc565b60405180910390fd5b6004600083815260200190815260200160002060009054906101000a900473ffffffffffffffffffffffffffffffffffffffff169050919050565b600061075382610b98565b90508073ffffffffffffffffffffffffffffffffffffffff168373ffffffffffffffffffffffffffffffffffffffff16036107c3576040517f08c379a00000000000000000000000000000000000000000000000000000000081526004016107ba9061245e565b60405180910390fd5b8073ffffffffffffffffffffffffffffffffffffffff166107e261107c565b73ffffffffffffffffffffffffffffffffffffffff16148061081157506108108161080b61107c565b610f12565b5b610850576040517f08c379a0000000000000000000000000000000000000000000000000000000008152600401610847906124f0565b60405180910390fd5b61085a8383611084565b505050565b5050565b600660205280600052604060002060009150905080600001805461088690612329565b80601f01602080910402602001604051908101604052809291908181526020018280546108b290612329565b80156108ff5780601f106108d4576101008083540402835291602001916108ff565b820191906000526020600020905b8154815290600101906020018083116108e257829003601f168201915b5050505050905081565b61091a61091461107c565b8261113d565b610959576040517f08c379a000000000000000000000000000000000000000000000000000000000815260040161095090612582565b60405180910390fd5b61096483838361121b565b505050565b60006007600083815260200190815260200160002054116109bf576040517f08c379a00000000000000000000000000000000000000000000000000000000081526004016109b6906125ee565b60405180910390fd5b60006007600083815260200190815260200160002054905060006109e283610b98565b9050813411610a26576040517f08c379a0000000000000000000000000000000000000000000000000000000008152600401610a1d9061265a565b60405180910390fd5b610a31813385610909565b6000610a3c82611481565b90508073ffffffffffffffffffffffffffffffffffffffff166108fc849081150290604051600060405180830381858888f19350505050158015610a84573d6000803e3d6000fd5b5082341115610ae0573373ffffffffffffffffffffffffffffffffffffffff166108fc8434610ab391906126a9565b9081150290604051600060405180830381858888f19350505050158015610ade573d6000803e3d6000fd5b505b50505050565b3373ffffffffffffffffffffffffffffffffffffffff16610b0683610b98565b73ffffffffffffffffffffffffffffffffffffffff1614610b5c576040517f08c379a0000000000000000000000000000000000000000000000000000000008152600401610b539061274f565b60405180910390fd5b8060076000848152602001908152602001600020819055505050565b610b9383838360405180602001604052806000815250610dfe565b505050565b6000806002600084815260200190815260200160002060009054906101000a900473ffffffffffffffffffffffffffffffffffffffff169050600073ffffffffffffffffffffffffffffffffffffffff168173ffffffffffffffffffffffffffffffffffffffff1603610c40576040517f08c379a0000000000000000000000000000000000000000000000000000000008152600401610c37906127e1565b60405180910390fd5b80915050919050565b60008073ffffffffffffffffffffffffffffffffffffffff168273ffffffffffffffffffffffffffffffffffffffff1603610cb9576040517f08c379a0000000000000000000000000000000000000000000000000000000008152600401610cb090612873565b60405180910390fd5b600360008373ffffffffffffffffffffffffffffffffffffffff1673ffffffffffffffffffffffffffffffffffffffff168152602001908152602001600020549050919050565b606060018054610d0f90612329565b80601f0160208091040260200160405190810160405280929190818152602001828054610d3b90612329565b8015610d885780601f10610d5d57610100808354040283529160200191610d88565b820191906000526020600020905b815481529060010190602001808311610d6b57829003601f168201915b5050505050905090565b6000604051806020016040528084815250905080600660008481526020019081526020016000206000820151816000019080519060200190610dd5929190611b57565b50905050610de3338361148b565b505050565b610dfa610df361107c565b8383611664565b5050565b610e0f610e0961107c565b8361113d565b610e4e576040517f08c379a0000000000000000000000000000000000000000000000000000000008152600401610e4590612582565b60405180910390fd5b610e5a848484846117d0565b50505050565b6060610e6b82611010565b610eaa576040517f08c379a0000000000000000000000000000000000000000000000000000000008152600401610ea190612905565b60405180910390fd5b6000610eb461182c565b90506000815111610ed45760405180602001604052806000815250610eff565b80610ede84611843565b604051602001610eef929190612961565b6040516020818303038152906040525b915050919050565b6060919050565b5050565b6000600560008473ffffffffffffffffffffffffffffffffffffffff1673ffffffffffffffffffffffffffffffffffffffff16815260200190815260200160002060008373ffffffffffffffffffffffffffffffffffffffff1673ffffffffffffffffffffffffffffffffffffffff16815260200190815260200160002060009054906101000a900460ff16905092915050565b60007f01ffc9a7000000000000000000000000000000000000000000000000000000007bffffffffffffffffffffffffffffffffffffffffffffffffffffffff1916827bffffffffffffffffffffffffffffffffffffffffffffffffffffffff1916149050919050565b60008073ffffffffffffffffffffffffffffffffffffffff166002600084815260200190815260200160002060009054906101000a900473ffffffffffffffffffffffffffffffffffffffff1673ffffffffffffffffffffffffffffffffffffffff1614159050919050565b600033905090565b816004600083815260200190815260200160002060006101000a81548173ffffffffffffffffffffffffffffffffffffffff021916908373ffffffffffffffffffffffffffffffffffffffff160217905550808273ffffffffffffffffffffffffffffffffffffffff166110f783610b98565b73ffffffffffffffffffffffffffffffffffffffff167f8c5be1e5ebec7d5bd14f71427d1e84f3dd0314c0f7b2291e5b200ac8c7c3b92560405160405180910390a45050565b600061114882611010565b611187576040517f08c379a000000000000000000000000000000000000000000000000000000000815260040161117e906129f7565b60405180910390fd5b600061119283610b98565b90508073ffffffffffffffffffffffffffffffffffffffff168473ffffffffffffffffffffffffffffffffffffffff1614806111d457506111d38185610f12565b5b8061121257508373ffffffffffffffffffffffffffffffffffffffff166111fa846106c3565b73ffffffffffffffffffffffffffffffffffffffff16145b91505092915050565b8273ffffffffffffffffffffffffffffffffffffffff1661123b82610b98565b73ffffffffffffffffffffffffffffffffffffffff1614611291576040517f08c379a000000000000000000000000000000000000000000000000000000000815260040161128890612a89565b60405180910390fd5b600073ffffffffffffffffffffffffffffffffffffffff168273ffffffffffffffffffffffffffffffffffffffff1603611300576040517f08c379a00000000000000000000000000000000000000000000000000000000081526004016112f790612b1b565b60405180910390fd5b61130b8383836119a3565b611316600082611084565b6001600360008573ffffffffffffffffffffffffffffffffffffffff1673ffffffffffffffffffffffffffffffffffffffff168152602001908152602001600020600082825461136691906126a9565b925050819055506001600360008473ffffffffffffffffffffffffffffffffffffffff1673ffffffffffffffffffffffffffffffffffffffff16815260200190815260200160002060008282546113bd9190612b3b565b92505081905550816002600083815260200190815260200160002060006101000a81548173ffffffffffffffffffffffffffffffffffffffff021916908373ffffffffffffffffffffffffffffffffffffffff160217905550808273ffffffffffffffffffffffffffffffffffffffff168473ffffffffffffffffffffffffffffffffffffffff167fddf252ad1be2c89b69c2b068fc378daa952ba7f163c4a11628f55a4df523b3ef60405160405180910390a461147c8383836119a8565b505050565b6000819050919050565b600073ffffffffffffffffffffffffffffffffffffffff168273ffffffffffffffffffffffffffffffffffffffff16036114fa576040517f08c379a00000000000000000000000000000000000000000000000000000000081526004016114f190612bdd565b60405180910390fd5b61150381611010565b15611543576040517f08c379a000000000000000000000000000000000000000000000000000000000815260040161153a90612c49565b60405180910390fd5b61154f600083836119a3565b6001600360008473ffffffffffffffffffffffffffffffffffffffff1673ffffffffffffffffffffffffffffffffffffffff168152602001908152602001600020600082825461159f9190612b3b565b92505081905550816002600083815260200190815260200160002060006101000a81548173ffffffffffffffffffffffffffffffffffffffff021916908373ffffffffffffffffffffffffffffffffffffffff160217905550808273ffffffffffffffffffffffffffffffffffffffff16600073ffffffffffffffffffffffffffffffffffffffff167fddf252ad1be2c89b69c2b068fc378daa952ba7f163c4a11628f55a4df523b3ef60405160405180910390a4611660600083836119a8565b5050565b8173ffffffffffffffffffffffffffffffffffffffff168373ffffffffffffffffffffffffffffffffffffffff16036116d2576040517f08c379a00000000000000000000000000000000000000000000000000000000081526004016116c990612cb5565b60405180910390fd5b80600560008573ffffffffffffffffffffffffffffffffffffffff1673ffffffffffffffffffffffffffffffffffffffff16815260200190815260200160002060008473ffffffffffffffffffffffffffffffffffffffff1673ffffffffffffffffffffffffffffffffffffffff16815260200190815260200160002060006101000a81548160ff0219169083151502179055508173ffffffffffffffffffffffffffffffffffffffff168373ffffffffffffffffffffffffffffffffffffffff167f17307eab39ab6107e8899845ad3d59bd9653f200f220920489ca2b5937696c31836040516117c39190611cae565b60405180910390a3505050565b6117db84848461121b565b6117e7848484846119ad565b611826576040517f08c379a000000000000000000000000000000000000000000000000000000000815260040161181d90612d47565b60405180910390fd5b50505050565b606060405180602001604052806000815250905090565b60606000820361188a576040518060400160405280600181526020017f3000000000000000000000000000000000000000000000000000000000000000815250905061199e565b600082905060005b600082146118bc5780806118a590612d67565b915050600a826118b59190612dde565b9150611892565b60008167ffffffffffffffff8111156118d8576118d7611fa3565b5b6040519080825280601f01601f19166020018201604052801561190a5781602001600182028036833780820191505090505b5090505b600085146119975760018261192391906126a9565b9150600a856119329190612e0f565b603061193e9190612b3b565b60f81b81838151811061195457611953612e40565b5b60200101907effffffffffffffffffffffffffffffffffffffffffffffffffffffffffffff1916908160001a905350600a856119909190612dde565b945061190e565b8093505050505b919050565b505050565b505050565b60006119ce8473ffffffffffffffffffffffffffffffffffffffff16611b34565b15611b27578373ffffffffffffffffffffffffffffffffffffffff1663150b7a026119f761107c565b8786866040518563ffffffff1660e01b8152600401611a199493929190612ec4565b6020604051808303816000875af1925050508015611a5557506040513d601f19601f82011682018060405250810190611a529190612f25565b60015b611ad7573d8060008114611a85576040519150601f19603f3d011682016040523d82523d6000602084013e611a8a565b606091505b506000815103611acf576040517f08c379a0000000000000000000000000000000000000000000000000000000008152600401611ac690612d47565b60405180910390fd5b805181602001fd5b63150b7a0260e01b7bffffffffffffffffffffffffffffffffffffffffffffffffffffffff1916817bffffffffffffffffffffffffffffffffffffffffffffffffffffffff191614915050611b2c565b600190505b949350505050565b6000808273ffffffffffffffffffffffffffffffffffffffff163b119050919050565b828054611b6390612329565b90600052602060002090601f016020900481019282611b855760008555611bcc565b82601f10611b9e57805160ff1916838001178555611bcc565b82800160010185558215611bcc579182015b82811115611bcb578251825591602001919060010190611bb0565b5b509050611bd99190611bdd565b5090565b5b80821115611bf6576000816000905550600101611bde565b5090565b6000604051905090565b600080fd5b600080fd5b60007fffffffff0000000000000000000000000000000000000000000000000000000082169050919050565b611c4381611c0e565b8114611c4e57600080fd5b50565b600081359050611c6081611c3a565b92915050565b600060208284031215611c7c57611c7b611c04565b5b6000611c8a84828501611c51565b91505092915050565b60008115159050919050565b611ca881611c93565b82525050565b6000602082019050611cc36000830184611c9f565b92915050565b6000819050919050565b611cdc81611cc9565b8114611ce757600080fd5b50565b600081359050611cf981611cd3565b92915050565b600060208284031215611d1557611d14611c04565b5b6000611d2384828501611cea565b91505092915050565b611d3581611cc9565b82525050565b6000602082019050611d506000830184611d2c565b92915050565b600081519050919050565b600082825260208201905092915050565b60005b83811015611d90578082015181840152602081019050611d75565b83811115611d9f576000848401525b50505050565b6000601f19601f8301169050919050565b6000611dc182611d56565b611dcb8185611d61565b9350611ddb818560208601611d72565b611de481611da5565b840191505092915050565b60006020820190508181036000830152611e098184611db6565b905092915050565b600073ffffffffffffffffffffffffffffffffffffffff82169050919050565b6000611e3c82611e11565b9050919050565b611e4c81611e31565b82525050565b6000602082019050611e676000830184611e43565b92915050565b611e7681611e31565b8114611e8157600080fd5b50565b600081359050611e9381611e6d565b92915050565b60008060408385031215611eb057611eaf611c04565b5b6000611ebe85828601611e84565b9250506020611ecf85828601611cea565b9150509250929050565b60008060408385031215611ef057611eef611c04565b5b6000611efe85828601611cea565b9250506020611f0f85828601611cea565b9150509250929050565b600080600060608486031215611f3257611f31611c04565b5b6000611f4086828701611e84565b9350506020611f5186828701611e84565b9250506040611f6286828701611cea565b9150509250925092565b600060208284031215611f8257611f81611c04565b5b6000611f9084828501611e84565b91505092915050565b600080fd5b600080fd5b7f4e487b7100000000000000000000000000000000000000000000000000000000600052604160045260246000fd5b611fdb82611da5565b810181811067ffffffffffffffff82111715611ffa57611ff9611fa3565b5b80604052505050565b600061200d611bfa565b90506120198282611fd2565b919050565b600067ffffffffffffffff82111561203957612038611fa3565b5b61204282611da5565b9050602081019050919050565b82818337600083830152505050565b600061207161206c8461201e565b612003565b90508281526020810184848401111561208d5761208c611f9e565b5b61209884828561204f565b509392505050565b600082601f8301126120b5576120b4611f99565b5b81356120c584826020860161205e565b91505092915050565b600080604083850312156120e5576120e4611c04565b5b600083013567ffffffffffffffff81111561210357612102611c09565b5b61210f858286016120a0565b925050602061212085828601611cea565b9150509250929050565b61213381611c93565b811461213e57600080fd5b50565b6000813590506121508161212a565b92915050565b6000806040838503121561216d5761216c611c04565b5b600061217b85828601611e84565b925050602061218c85828601612141565b9150509250929050565b600067ffffffffffffffff8211156121b1576121b0611fa3565b5b6121ba82611da5565b9050602081019050919050565b60006121da6121d584612196565b612003565b9050828152602081018484840111156121f6576121f5611f9e565b5b61220184828561204f565b509392505050565b600082601f83011261221e5761221d611f99565b5b813561222e8482602086016121c7565b91505092915050565b6000806000806080858703121561225157612250611c04565b5b600061225f87828801611e84565b945050602061227087828801611e84565b935050604061228187828801611cea565b925050606085013567ffffffffffffffff8111156122a2576122a1611c09565b5b6122ae87828801612209565b91505092959194509250565b600080604083850312156122d1576122d0611c04565b5b60006122df85828601611e84565b92505060206122f085828601611e84565b9150509250929050565b7f4e487b7100000000000000000000000000000000000000000000000000000000600052602260045260246000fd5b6000600282049050600182168061234157607f821691505b602082108103612354576123536122fa565b5b50919050565b7f4552433732313a20617070726f76656420717565727920666f72206e6f6e657860008201527f697374656e7420746f6b656e0000000000000000000000000000000000000000602082015250565b60006123b6602c83611d61565b91506123c18261235a565b604082019050919050565b600060208201905081810360008301526123e5816123a9565b9050919050565b7f4552433732313a20617070726f76616c20746f2063757272656e74206f776e6560008201527f7200000000000000000000000000000000000000000000000000000000000000602082015250565b6000612448602183611d61565b9150612453826123ec565b604082019050919050565b600060208201905081810360008301526124778161243b565b9050919050565b7f4552433732313a20617070726f76652063616c6c6572206973206e6f74206f7760008201527f6e6572206e6f7220617070726f76656420666f7220616c6c0000000000000000602082015250565b60006124da603883611d61565b91506124e58261247e565b604082019050919050565b60006020820190508181036000830152612509816124cd565b9050919050565b7f4552433732313a207472616e736665722063616c6c6572206973206e6f74206f60008201527f776e6572206e6f7220617070726f766564000000000000000000000000000000602082015250565b600061256c603183611d61565b915061257782612510565b604082019050919050565b6000602082019050818103600083015261259b8161255f565b9050919050565b7f54686520537461722073686f756c6420626520757020666f722073616c650000600082015250565b60006125d8601e83611d61565b91506125e3826125a2565b602082019050919050565b60006020820190508181036000830152612607816125cb565b9050919050565b7f596f75206e65656420746f206861766520656e6f756768204574686572000000600082015250565b6000612644601d83611d61565b915061264f8261260e565b602082019050919050565b6000602082019050818103600083015261267381612637565b9050919050565b7f4e487b7100000000000000000000000000000000000000000000000000000000600052601160045260246000fd5b60006126b482611cc9565b91506126bf83611cc9565b9250828210156126d2576126d161267a565b5b828203905092915050565b7f596f752063616e27742073616c6520746865205374617220796f7520646f6e2760008201527f74206f776e656400000000000000000000000000000000000000000000000000602082015250565b6000612739602783611d61565b9150612744826126dd565b604082019050919050565b600060208201905081810360008301526127688161272c565b9050919050565b7f4552433732313a206f776e657220717565727920666f72206e6f6e657869737460008201527f656e7420746f6b656e0000000000000000000000000000000000000000000000602082015250565b60006127cb602983611d61565b91506127d68261276f565b604082019050919050565b600060208201905081810360008301526127fa816127be565b9050919050565b7f4552433732313a2062616c616e636520717565727920666f7220746865207a6560008201527f726f206164647265737300000000000000000000000000000000000000000000602082015250565b600061285d602a83611d61565b915061286882612801565b604082019050919050565b6000602082019050818103600083015261288c81612850565b9050919050565b7f4552433732314d657461646174613a2055524920717565727920666f72206e6f60008201527f6e6578697374656e7420746f6b656e0000000000000000000000000000000000602082015250565b60006128ef602f83611d61565b91506128fa82612893565b604082019050919050565b6000602082019050818103600083015261291e816128e2565b9050919050565b600081905092915050565b600061293b82611d56565b6129458185612925565b9350612955818560208601611d72565b80840191505092915050565b600061296d8285612930565b91506129798284612930565b91508190509392505050565b7f4552433732313a206f70657261746f7220717565727920666f72206e6f6e657860008201527f697374656e7420746f6b656e0000000000000000000000000000000000000000602082015250565b60006129e1602c83611d61565b91506129ec82612985565b604082019050919050565b60006020820190508181036000830152612a10816129d4565b9050919050565b7f4552433732313a207472616e736665722066726f6d20696e636f72726563742060008201527f6f776e6572000000000000000000000000000000000000000000000000000000602082015250565b6000612a73602583611d61565b9150612a7e82612a17565b604082019050919050565b60006020820190508181036000830152612aa281612a66565b9050919050565b7f4552433732313a207472616e7366657220746f20746865207a65726f2061646460008201527f7265737300000000000000000000000000000000000000000000000000000000602082015250565b6000612b05602483611d61565b9150612b1082612aa9565b604082019050919050565b60006020820190508181036000830152612b3481612af8565b9050919050565b6000612b4682611cc9565b9150612b5183611cc9565b9250827fffffffffffffffffffffffffffffffffffffffffffffffffffffffffffffffff03821115612b8657612b8561267a565b5b828201905092915050565b7f4552433732313a206d696e7420746f20746865207a65726f2061646472657373600082015250565b6000612bc7602083611d61565b9150612bd282612b91565b602082019050919050565b60006020820190508181036000830152612bf681612bba565b9050919050565b7f4552433732313a20746f6b656e20616c7265616479206d696e74656400000000600082015250565b6000612c33601c83611d61565b9150612c3e82612bfd565b602082019050919050565b60006020820190508181036000830152612c6281612c26565b9050919050565b7f4552433732313a20617070726f766520746f2063616c6c657200000000000000600082015250565b6000612c9f601983611d61565b9150612caa82612c69565b602082019050919050565b60006020820190508181036000830152612cce81612c92565b9050919050565b7f4552433732313a207472616e7366657220746f206e6f6e20455243373231526560008201527f63656976657220696d706c656d656e7465720000000000000000000000000000602082015250565b6000612d31603283611d61565b9150612d3c82612cd5565b604082019050919050565b60006020820190508181036000830152612d6081612d24565b9050919050565b6000612d7282611cc9565b91507fffffffffffffffffffffffffffffffffffffffffffffffffffffffffffffffff8203612da457612da361267a565b5b600182019050919050565b7f4e487b7100000000000000000000000000000000000000000000000000000000600052601260045260246000fd5b6000612de982611cc9565b9150612df483611cc9565b925082612e0457612e03612daf565b5b828204905092915050565b6000612e1a82611cc9565b9150612e2583611cc9565b925082612e3557612e34612daf565b5b828206905092915050565b7f4e487b7100000000000000000000000000000000000000000000000000000000600052603260045260246000fd5b600081519050919050565b600082825260208201905092915050565b6000612e9682612e6f565b612ea08185612e7a565b9350612eb0818560208601611d72565b612eb981611da5565b840191505092915050565b6000608082019050612ed96000830187611e43565b612ee66020830186611e43565b612ef36040830185611d2c565b8181036060830152612f058184612e8b565b905095945050505050565b600081519050612f1f81611c3a565b92915050565b600060208284031215612f3b57612f3a611c04565b5b6000612f4984828501612f10565b9150509291505056fea26469706673582212202353aa9e505c03fda50a262111a8d4ea186479913702b4f22f06ce68d2327dea64736f6c634300080d0033",
  "immutableReferences": {},
  "source": "// SPDX-License-Identifier: MIT\npragma solidity ^0.8.0;\n\n// Importing openzeppelin-solidity ERC-721 implemented Standard\nimport \"../app/node_modules/openzeppelin-solidity/contracts/token/ERC721/ERC721.sol\";\n\n// StarNotary Contract declaration inheritance the ERC721 openzeppelin implementation\ncontract StarNotary is ERC721 {\n    constructor() ERC721(\"StarNotary\", \"SN\") {}\n\n    // Star data\n    struct Star {\n        string name;\n    }\n\n    // Implement Task 1 Add a name and symbol properties\n    // name: Is a short name to your token\n    // symbol: Is a short string like 'USD' -> 'American Dollar'\n\n    // mapping the Star with the Owner Address\n    mapping(uint256 => Star) public tokenIdToStarInfo;\n    // mapping the TokenId and price\n    mapping(uint256 => uint256) public starsForSale;\n\n    // Create Star using the Struct\n    function createStar(string memory _name, uint256 _tokenId) public {\n        // Passing the name and tokenId as a parameters\n        Star memory newStar = Star(_name); // Star is an struct so we are creating a new Star\n        tokenIdToStarInfo[_tokenId] = newStar; // Creating in memory the Star -> tokenId mapping\n        _mint(msg.sender, _tokenId); // _mint assign the the star with _tokenId to the sender address (ownership)\n    }\n\n    // Putting an Star for sale (Adding the star tokenid into the mapping starsForSale, first verify that the sender is the owner)\n    function putStarUpForSale(uint256 _tokenId, uint256 _price) public {\n        require(\n            ownerOf(_tokenId) == msg.sender,\n            \"You can't sale the Star you don't owned\"\n        );\n        starsForSale[_tokenId] = _price;\n    }\n\n    // Function that allows you to convert an address into a payable address\n    function _make_payable(address x) internal pure returns (address payable) {\n        return payable(address(uint160(x)));\n    }\n\n    function buyStar(uint256 _tokenId) public payable {\n        require(starsForSale[_tokenId] > 0, \"The Star should be up for sale\");\n        uint256 starCost = starsForSale[_tokenId];\n        address ownerAddress = ownerOf(_tokenId);\n        require(msg.value > starCost, \"You need to have enough Ether\");\n        transferFrom(ownerAddress, msg.sender, _tokenId); // We can't use _addTokenTo or_removeTokenFrom functions, now we have to use _transferFrom\n        address payable ownerAddressPayable = _make_payable(ownerAddress); // We need to make this conversion to be able to use transfer() function to transfer ethers\n        ownerAddressPayable.transfer(starCost);\n        if (msg.value > starCost) {\n            payable(msg.sender).transfer(msg.value - starCost);\n        }\n    }\n\n    // Implement Task 1 lookUptokenIdToStarInfo\n    function lookUptokenIdToStarInfo(uint256 _tokenId)\n        public\n        view\n        returns (string memory)\n    {\n        //1. You should return the Star saved in tokenIdToStarInfo mapping\n    }\n\n    // Implement Task 1 Exchange Stars function\n    function exchangeStars(uint256 _tokenId1, uint256 _tokenId2) public {\n        //1. Passing to star tokenId you will need to check if the owner of _tokenId1 or _tokenId2 is the sender\n        //2. You don't have to check for the price of the token (star)\n        //3. Get the owner of the two tokens (ownerOf(_tokenId1), ownerOf(_tokenId2)\n        //4. Use _transferFrom function to exchange the tokens.\n    }\n\n    // Implement Task 1 Transfer Stars\n    function transferStar(address _to1, uint256 _tokenId) public {\n        //1. Check if the sender is the ownerOf(_tokenId)\n        //2. Use the transferFrom(from, to, tokenId); function to transfer the Star\n    }\n}\n",
  "sourcePath": "/Users/dl00021ml/Documents/Repo/blockchain/Decentralized-Star-Notary-Service/contracts/StarNotary.sol",
  "compiler": {
    "name": "solc",
    "version": "0.8.13+commit.abaa5c0e.Emscripten.clang"
  },
  "schemaVersion": "3.4.7",
  "updatedAt": "2022-05-08T13:13:21.354Z",
  "networkType": "ethereum",
  "devdoc": {
    "kind": "dev",
    "methods": {
      "approve(address,uint256)": {
        "details": "See {IERC721-approve}."
      },
      "balanceOf(address)": {
        "details": "See {IERC721-balanceOf}."
      },
      "getApproved(uint256)": {
        "details": "See {IERC721-getApproved}."
      },
      "isApprovedForAll(address,address)": {
        "details": "See {IERC721-isApprovedForAll}."
      },
      "name()": {
        "details": "See {IERC721Metadata-name}."
      },
      "ownerOf(uint256)": {
        "details": "See {IERC721-ownerOf}."
      },
      "safeTransferFrom(address,address,uint256)": {
        "details": "See {IERC721-safeTransferFrom}."
      },
      "safeTransferFrom(address,address,uint256,bytes)": {
        "details": "See {IERC721-safeTransferFrom}."
      },
      "setApprovalForAll(address,bool)": {
        "details": "See {IERC721-setApprovalForAll}."
      },
      "supportsInterface(bytes4)": {
        "details": "See {IERC165-supportsInterface}."
      },
      "symbol()": {
        "details": "See {IERC721Metadata-symbol}."
      },
      "tokenURI(uint256)": {
        "details": "See {IERC721Metadata-tokenURI}."
      },
      "transferFrom(address,address,uint256)": {
        "details": "See {IERC721-transferFrom}."
      }
    },
    "version": 1
  },
  "userdoc": {
    "kind": "user",
    "methods": {},
    "version": 1
  }
}